{
  "_format": "hh-sol-artifact-1",
  "contractName": "BeerPortal",
  "sourceName": "contracts/BeerPortal.sol",
  "abi": [
    {
      "inputs": [],
      "stateMutability": "nonpayable",
      "type": "constructor"
    },
    {
      "anonymous": false,
      "inputs": [
        {
          "indexed": true,
          "internalType": "address",
          "name": "from",
          "type": "address"
        },
        {
          "indexed": false,
          "internalType": "string",
          "name": "message",
          "type": "string"
        },
        {
          "indexed": false,
          "internalType": "uint256",
          "name": "timestamp",
          "type": "uint256"
        }
      ],
      "name": "NewBeer",
      "type": "event"
    },
    {
      "inputs": [],
      "name": "getAllBeers",
      "outputs": [
        {
          "components": [
            {
              "internalType": "address",
              "name": "bartender",
              "type": "address"
            },
            {
              "internalType": "string",
              "name": "message",
              "type": "string"
            },
            {
              "internalType": "uint256",
              "name": "timestamp",
              "type": "uint256"
            }
          ],
          "internalType": "struct BeerPortal.Beer[]",
          "name": "",
          "type": "tuple[]"
        }
      ],
      "stateMutability": "view",
      "type": "function"
    },
    {
      "inputs": [],
      "name": "getTotalBeers",
      "outputs": [
        {
          "internalType": "uint256",
          "name": "",
          "type": "uint256"
        }
      ],
      "stateMutability": "view",
      "type": "function"
    },
    {
      "inputs": [
        {
          "internalType": "string",
          "name": "_message",
          "type": "string"
        }
      ],
      "name": "receiveBeer",
      "outputs": [],
      "stateMutability": "nonpayable",
      "type": "function"
    }
  ],
  "bytecode": "0x60806040523480156200001157600080fd5b506200004160405180606001604052806028815260200162000e10602891396200004760201b620003951760201c565b620001db565b620000e7816040516024016200005e919062000154565b6040516020818303038152906040527f41304fac000000000000000000000000000000000000000000000000000000007bffffffffffffffffffffffffffffffffffffffffffffffffffffffff19166020820180517bffffffffffffffffffffffffffffffffffffffffffffffffffffffff8381831617835250505050620000ea60201b60201c565b50565b60008151905060006a636f6e736f6c652e6c6f679050602083016000808483855afa5050505050565b6000620001208262000178565b6200012c818562000183565b93506200013e81856020860162000194565b6200014981620001ca565b840191505092915050565b6000602082019050818103600083015262000170818462000113565b905092915050565b600081519050919050565b600082825260208201905092915050565b60005b83811015620001b457808201518184015260208101905062000197565b83811115620001c4576000848401525b50505050565b6000601f19601f8301169050919050565b610c2580620001eb6000396000f3fe608060405234801561001057600080fd5b50600436106100415760003560e01c8063033cfa471461004657806367b0d31214610062578063efff97d414610080575b600080fd5b610060600480360381019061005b919061069d565b61009e565b005b61006a6101f9565b6040516100779190610865565b60405180910390f35b61008861034a565b604051610095919061091e565b60405180910390f35b60016000808282546100b091906109f5565b925050819055506100da604051806060016040528060258152602001610bcb60259139338361042e565b600160405180606001604052803373ffffffffffffffffffffffffffffffffffffffff16815260200183815260200142815250908060018154018082558091505060019003906000526020600020906003020160009091909190915060008201518160000160006101000a81548173ffffffffffffffffffffffffffffffffffffffff021916908373ffffffffffffffffffffffffffffffffffffffff1602179055506020820151816001019080519060200190610199929190610592565b506040820151816002015550503373ffffffffffffffffffffffffffffffffffffffff167f0f99491829d797c6ae54bab86c7813c5a2f9861bd0bc493aab165acf2e1dc88d82426040516101ee9291906108ee565b60405180910390a250565b60606001805480602002602001604051908101604052809291908181526020016000905b8282101561034157838290600052602060002090600302016040518060600160405290816000820160009054906101000a900473ffffffffffffffffffffffffffffffffffffffff1673ffffffffffffffffffffffffffffffffffffffff1673ffffffffffffffffffffffffffffffffffffffff1681526020016001820180546102a690610ac9565b80601f01602080910402602001604051908101604052809291908181526020018280546102d290610ac9565b801561031f5780601f106102f45761010080835404028352916020019161031f565b820191906000526020600020905b81548152906001019060200180831161030257829003601f168201915b505050505081526020016002820154815250508152602001906001019061021d565b50505050905090565b600061038d6040518060400160405280601581526020017f5765206861766520256420746f74616c206265657200000000000000000000008152506000546104cd565b600054905090565b61042b816040516024016103a99190610887565b6040516020818303038152906040527f41304fac000000000000000000000000000000000000000000000000000000007bffffffffffffffffffffffffffffffffffffffffffffffffffffffff19166020820180517bffffffffffffffffffffffffffffffffffffffffffffffffffffffff8381831617835250505050610569565b50565b6104c8838383604051602401610446939291906108a9565b6040516020818303038152906040527fe0e9ad4f000000000000000000000000000000000000000000000000000000007bffffffffffffffffffffffffffffffffffffffffffffffffffffffff19166020820180517bffffffffffffffffffffffffffffffffffffffffffffffffffffffff8381831617835250505050610569565b505050565b61056582826040516024016104e39291906108ee565b6040516020818303038152906040527f9710a9d0000000000000000000000000000000000000000000000000000000007bffffffffffffffffffffffffffffffffffffffffffffffffffffffff19166020820180517bffffffffffffffffffffffffffffffffffffffffffffffffffffffff8381831617835250505050610569565b5050565b60008151905060006a636f6e736f6c652e6c6f679050602083016000808483855afa5050505050565b82805461059e90610ac9565b90600052602060002090601f0160209004810192826105c05760008555610607565b82601f106105d957805160ff1916838001178555610607565b82800160010185558215610607579182015b828111156106065782518255916020019190600101906105eb565b5b5090506106149190610618565b5090565b5b80821115610631576000816000905550600101610619565b5090565b60006106486106438461095e565b610939565b90508281526020810184848401111561066057600080fd5b61066b848285610a87565b509392505050565b600082601f83011261068457600080fd5b8135610694848260208601610635565b91505092915050565b6000602082840312156106af57600080fd5b600082013567ffffffffffffffff8111156106c957600080fd5b6106d584828501610673565b91505092915050565b60006106ea83836107f7565b905092915050565b6106fb81610a4b565b82525050565b61070a81610a4b565b82525050565b600061071b8261099f565b61072581856109c2565b9350836020820285016107378561098f565b8060005b85811015610773578484038952815161075485826106de565b945061075f836109b5565b925060208a0199505060018101905061073b565b50829750879550505050505092915050565b6000610790826109aa565b61079a81856109d3565b93506107aa818560208601610a96565b6107b381610bb9565b840191505092915050565b60006107c9826109aa565b6107d381856109e4565b93506107e3818560208601610a96565b6107ec81610bb9565b840191505092915050565b600060608301600083015161080f60008601826106f2565b50602083015184820360208601526108278282610785565b915050604083015161083c6040860182610847565b508091505092915050565b61085081610a7d565b82525050565b61085f81610a7d565b82525050565b6000602082019050818103600083015261087f8184610710565b905092915050565b600060208201905081810360008301526108a181846107be565b905092915050565b600060608201905081810360008301526108c381866107be565b90506108d26020830185610701565b81810360408301526108e481846107be565b9050949350505050565b6000604082019050818103600083015261090881856107be565b90506109176020830184610856565b9392505050565b60006020820190506109336000830184610856565b92915050565b6000610943610954565b905061094f8282610afb565b919050565b6000604051905090565b600067ffffffffffffffff82111561097957610978610b8a565b5b61098282610bb9565b9050602081019050919050565b6000819050602082019050919050565b600081519050919050565b600081519050919050565b6000602082019050919050565b600082825260208201905092915050565b600082825260208201905092915050565b600082825260208201905092915050565b6000610a0082610a7d565b9150610a0b83610a7d565b9250827fffffffffffffffffffffffffffffffffffffffffffffffffffffffffffffffff03821115610a4057610a3f610b2c565b5b828201905092915050565b6000610a5682610a5d565b9050919050565b600073ffffffffffffffffffffffffffffffffffffffff82169050919050565b6000819050919050565b82818337600083830152505050565b60005b83811015610ab4578082015181840152602081019050610a99565b83811115610ac3576000848401525b50505050565b60006002820490506001821680610ae157607f821691505b60208210811415610af557610af4610b5b565b5b50919050565b610b0482610bb9565b810181811067ffffffffffffffff82111715610b2357610b22610b8a565b5b80604052505050565b7f4e487b7100000000000000000000000000000000000000000000000000000000600052601160045260246000fd5b7f4e487b7100000000000000000000000000000000000000000000000000000000600052602260045260246000fd5b7f4e487b7100000000000000000000000000000000000000000000000000000000600052604160045260246000fd5b6000601f19601f830116905091905056fe25732068617320676976656e20796f7520626565722077697468206d657373616765202573a2646970667358221220ef8aec5f8e496dad28a6639492af26edcf56d422d6ad5b943938b752f7bddb8064736f6c63430008040033f09f8dbaf09f8dbb2c204920616d206120636f6e747261637420616e64204920616d20736d617274",
  "linkReferences": {},
  "deployedLinkReferences": {}
}