{
  "_format": "hh-sol-artifact-1",
  "contractName": "BeerPortal",
  "sourceName": "contracts/BeerPortal.sol",
  "abi": [
    {
      "inputs": [],
      "stateMutability": "payable",
      "type": "constructor"
    },
    {
      "anonymous": false,
      "inputs": [
        {
          "indexed": true,
          "internalType": "address",
          "name": "from",
          "type": "address"
        },
        {
          "indexed": false,
          "internalType": "string",
          "name": "message",
          "type": "string"
        },
        {
          "indexed": false,
          "internalType": "uint256",
          "name": "timestamp",
          "type": "uint256"
        }
      ],
      "name": "NewBeer",
      "type": "event"
    },
    {
      "inputs": [],
      "name": "getAllBeers",
      "outputs": [
        {
          "components": [
            {
              "internalType": "address",
              "name": "bartender",
              "type": "address"
            },
            {
              "internalType": "string",
              "name": "message",
              "type": "string"
            },
            {
              "internalType": "uint256",
              "name": "timestamp",
              "type": "uint256"
            }
          ],
          "internalType": "struct BeerPortal.Beer[]",
          "name": "",
          "type": "tuple[]"
        }
      ],
      "stateMutability": "view",
      "type": "function"
    },
    {
      "inputs": [],
      "name": "getTotalBeers",
      "outputs": [
        {
          "internalType": "uint256",
          "name": "",
          "type": "uint256"
        }
      ],
      "stateMutability": "view",
      "type": "function"
    },
    {
      "inputs": [
        {
          "internalType": "address",
          "name": "",
          "type": "address"
        }
      ],
      "name": "lastBeeredAt",
      "outputs": [
        {
          "internalType": "uint256",
          "name": "",
          "type": "uint256"
        }
      ],
      "stateMutability": "view",
      "type": "function"
    },
    {
      "inputs": [
        {
          "internalType": "string",
          "name": "_message",
          "type": "string"
        }
      ],
      "name": "receiveBeer",
      "outputs": [],
      "stateMutability": "nonpayable",
      "type": "function"
    }
  ],
  "bytecode": "0x60806040526200003360405180606001604052806028815260200162001443602891396200005b60201b6200062c1760201c565b60644442620000439190620001a8565b6200004f919062000245565b600181905550620002ec565b620000fb8160405160240162000072919062000168565b6040516020818303038152906040527f41304fac000000000000000000000000000000000000000000000000000000007bffffffffffffffffffffffffffffffffffffffffffffffffffffffff19166020820180517bffffffffffffffffffffffffffffffffffffffffffffffffffffffff8381831617835250505050620000fe60201b60201c565b50565b60008151905060006a636f6e736f6c652e6c6f679050602083016000808483855afa5050505050565b600062000134826200018c565b62000140818562000197565b9350620001528185602086016200020f565b6200015d81620002db565b840191505092915050565b6000602082019050818103600083015262000184818462000127565b905092915050565b600081519050919050565b600082825260208201905092915050565b6000620001b58262000205565b9150620001c28362000205565b9250827fffffffffffffffffffffffffffffffffffffffffffffffffffffffffffffffff03821115620001fa57620001f96200027d565b5b828201905092915050565b6000819050919050565b60005b838110156200022f57808201518184015260208101905062000212565b838111156200023f576000848401525b50505050565b6000620002528262000205565b91506200025f8362000205565b925082620002725762000271620002ac565b5b828206905092915050565b7f4e487b7100000000000000000000000000000000000000000000000000000000600052601160045260246000fd5b7f4e487b7100000000000000000000000000000000000000000000000000000000600052601260045260246000fd5b6000601f19601f8301169050919050565b61114780620002fc6000396000f3fe608060405234801561001057600080fd5b506004361061004c5760003560e01c8063033cfa471461005157806367b0d3121461006d578063c8fc5a281461008b578063efff97d4146100bb575b600080fd5b61006b60048036038101906100669190610972565b6100d9565b005b610075610478565b6040516100829190610bdb565b60405180910390f35b6100a560048036038101906100a09190610949565b6105c9565b6040516100b29190610cf4565b60405180910390f35b6100c36105e1565b6040516100d09190610cf4565b60405180910390f35b42603c600360003373ffffffffffffffffffffffffffffffffffffffff1673ffffffffffffffffffffffffffffffffffffffff168152602001908152602001600020546101269190610dd6565b10610166576040517f08c379a000000000000000000000000000000000000000000000000000000000815260040161015d90610cd4565b60405180910390fd5b42600360003373ffffffffffffffffffffffffffffffffffffffff1673ffffffffffffffffffffffffffffffffffffffff1681526020019081526020016000208190555060016000808282546101bc9190610dd6565b925050819055506101e66040518060600160405280602581526020016110ed6025913933836106c5565b600260405180606001604052803373ffffffffffffffffffffffffffffffffffffffff16815260200183815260200142815250908060018154018082558091505060019003906000526020600020906003020160009091909190915060008201518160000160006101000a81548173ffffffffffffffffffffffffffffffffffffffff021916908373ffffffffffffffffffffffffffffffffffffffff16021790555060208201518160010190805190602001906102a5929190610829565b50604082015181600201555050606460015442446102c39190610dd6565b6102cd9190610dd6565b6102d79190610f0d565b60018190555061031e6040518060400160405280601681526020017f52616e646f6d20232067656e6572617465643a20256400000000000000000000815250600154610764565b603260015411610425576000655af3107a4000905047811115610376576040517f08c379a000000000000000000000000000000000000000000000000000000000815260040161036d90610c94565b60405180910390fd5b60003373ffffffffffffffffffffffffffffffffffffffff168260405161039c90610bc6565b60006040518083038185875af1925050503d80600081146103d9576040519150601f19603f3d011682016040523d82523d6000602084013e6103de565b606091505b5050905080610422576040517f08c379a000000000000000000000000000000000000000000000000000000000815260040161041990610cb4565b60405180910390fd5b50505b3373ffffffffffffffffffffffffffffffffffffffff167f0f99491829d797c6ae54bab86c7813c5a2f9861bd0bc493aab165acf2e1dc88d824260405161046d929190610c64565b60405180910390a250565b60606002805480602002602001604051908101604052809291908181526020016000905b828210156105c057838290600052602060002090600302016040518060600160405290816000820160009054906101000a900473ffffffffffffffffffffffffffffffffffffffff1673ffffffffffffffffffffffffffffffffffffffff1673ffffffffffffffffffffffffffffffffffffffff16815260200160018201805461052590610eaa565b80601f016020809104026020016040519081016040528092919081815260200182805461055190610eaa565b801561059e5780601f106105735761010080835404028352916020019161059e565b820191906000526020600020905b81548152906001019060200180831161058157829003601f168201915b505050505081526020016002820154815250508152602001906001019061049c565b50505050905090565b60036020528060005260406000206000915090505481565b60006106246040518060400160405280601581526020017f5765206861766520256420746f74616c20626565720000000000000000000000815250600054610764565b600054905090565b6106c2816040516024016106409190610bfd565b6040516020818303038152906040527f41304fac000000000000000000000000000000000000000000000000000000007bffffffffffffffffffffffffffffffffffffffffffffffffffffffff19166020820180517bffffffffffffffffffffffffffffffffffffffffffffffffffffffff8381831617835250505050610800565b50565b61075f8383836040516024016106dd93929190610c1f565b6040516020818303038152906040527fe0e9ad4f000000000000000000000000000000000000000000000000000000007bffffffffffffffffffffffffffffffffffffffffffffffffffffffff19166020820180517bffffffffffffffffffffffffffffffffffffffffffffffffffffffff8381831617835250505050610800565b505050565b6107fc828260405160240161077a929190610c64565b6040516020818303038152906040527f9710a9d0000000000000000000000000000000000000000000000000000000007bffffffffffffffffffffffffffffffffffffffffffffffffffffffff19166020820180517bffffffffffffffffffffffffffffffffffffffffffffffffffffffff8381831617835250505050610800565b5050565b60008151905060006a636f6e736f6c652e6c6f679050602083016000808483855afa5050505050565b82805461083590610eaa565b90600052602060002090601f016020900481019282610857576000855561089e565b82601f1061087057805160ff191683800117855561089e565b8280016001018555821561089e579182015b8281111561089d578251825591602001919060010190610882565b5b5090506108ab91906108af565b5090565b5b808211156108c85760008160009055506001016108b0565b5090565b60006108df6108da84610d34565b610d0f565b9050828152602081018484840111156108f757600080fd5b610902848285610e68565b509392505050565b600081359050610919816110d5565b92915050565b600082601f83011261093057600080fd5b81356109408482602086016108cc565b91505092915050565b60006020828403121561095b57600080fd5b60006109698482850161090a565b91505092915050565b60006020828403121561098457600080fd5b600082013567ffffffffffffffff81111561099e57600080fd5b6109aa8482850161091f565b91505092915050565b60006109bf8383610b58565b905092915050565b6109d081610e2c565b82525050565b6109df81610e2c565b82525050565b60006109f082610d75565b6109fa8185610d98565b935083602082028501610a0c85610d65565b8060005b85811015610a485784840389528151610a2985826109b3565b9450610a3483610d8b565b925060208a01995050600181019050610a10565b50829750879550505050505092915050565b6000610a6582610d80565b610a6f8185610db4565b9350610a7f818560208601610e77565b610a8881610ffa565b840191505092915050565b6000610a9e82610d80565b610aa88185610dc5565b9350610ab8818560208601610e77565b610ac181610ffa565b840191505092915050565b6000610ad9603483610dc5565b9150610ae48261100b565b604082019050919050565b6000610afc602c83610dc5565b9150610b078261105a565b604082019050919050565b6000610b1f600f83610dc5565b9150610b2a826110a9565b602082019050919050565b6000610b42600083610da9565b9150610b4d826110d2565b600082019050919050565b6000606083016000830151610b7060008601826109c7565b5060208301518482036020860152610b888282610a5a565b9150506040830151610b9d6040860182610ba8565b508091505092915050565b610bb181610e5e565b82525050565b610bc081610e5e565b82525050565b6000610bd182610b35565b9150819050919050565b60006020820190508181036000830152610bf581846109e5565b905092915050565b60006020820190508181036000830152610c178184610a93565b905092915050565b60006060820190508181036000830152610c398186610a93565b9050610c4860208301856109d6565b8181036040830152610c5a8184610a93565b9050949350505050565b60006040820190508181036000830152610c7e8185610a93565b9050610c8d6020830184610bb7565b9392505050565b60006020820190508181036000830152610cad81610acc565b9050919050565b60006020820190508181036000830152610ccd81610aef565b9050919050565b60006020820190508181036000830152610ced81610b12565b9050919050565b6000602082019050610d096000830184610bb7565b92915050565b6000610d19610d2a565b9050610d258282610edc565b919050565b6000604051905090565b600067ffffffffffffffff821115610d4f57610d4e610fcb565b5b610d5882610ffa565b9050602081019050919050565b6000819050602082019050919050565b600081519050919050565b600081519050919050565b6000602082019050919050565b600082825260208201905092915050565b600081905092915050565b600082825260208201905092915050565b600082825260208201905092915050565b6000610de182610e5e565b9150610dec83610e5e565b9250827fffffffffffffffffffffffffffffffffffffffffffffffffffffffffffffffff03821115610e2157610e20610f3e565b5b828201905092915050565b6000610e3782610e3e565b9050919050565b600073ffffffffffffffffffffffffffffffffffffffff82169050919050565b6000819050919050565b82818337600083830152505050565b60005b83811015610e95578082015181840152602081019050610e7a565b83811115610ea4576000848401525b50505050565b60006002820490506001821680610ec257607f821691505b60208210811415610ed657610ed5610f9c565b5b50919050565b610ee582610ffa565b810181811067ffffffffffffffff82111715610f0457610f03610fcb565b5b80604052505050565b6000610f1882610e5e565b9150610f2383610e5e565b925082610f3357610f32610f6d565b5b828206905092915050565b7f4e487b7100000000000000000000000000000000000000000000000000000000600052601160045260246000fd5b7f4e487b7100000000000000000000000000000000000000000000000000000000600052601260045260246000fd5b7f4e487b7100000000000000000000000000000000000000000000000000000000600052602260045260246000fd5b7f4e487b7100000000000000000000000000000000000000000000000000000000600052604160045260246000fd5b6000601f19601f8301169050919050565b7f547279696e6720746f207769746864726177206d6f7265206d6f6e657920746860008201527f616e2074686520636f6e7472616374206861732e000000000000000000000000602082015250565b7f4661696c656420746f2077697468647261772062656572206d6f6e657920667260008201527f6f6d20636f6e74726163742e0000000000000000000000000000000000000000602082015250565b7f57616974203630207365636f6e64730000000000000000000000000000000000600082015250565b50565b6110de81610e2c565b81146110e957600080fd5b5056fe25732068617320676976656e20796f7520626565722077697468206d657373616765202573a264697066735822122083611c578262083e5e314543d6452e72ba1a194d2493a229bc888a0a904c6f4f64736f6c63430008040033f09f8dbaf09f8dbb2c204920616d206120636f6e747261637420616e64204920616d20736d617274",
  "linkReferences": {},
  "deployedLinkReferences": {}
}